:100000000C942A000C943F000C943F000C943F0089
:100010000C943F000C943F000C943F000C943F0064
:100020000C943F000C943F000C943F000C943F0054
:100030000C943F000C943F000C943F000C943F0044
:100040000C943F000C943F000C943F000C943F0034
:100050000C943F0011241FBECFE5D4E0DEBFCDBF1E
:1000600010E0A0E6B0E0E8E1F7E302C005900D92F1
:10007000A43BB107D9F70E94FB100C948A1B0C9487
:100080000000EF92FF920F931F937B018C0120E001
:1000900030E040E05FE40E94ED0388238CF0C8016B
:1000A000B70120E030E040E05FE40E94B9010E9427
:1000B0004D049B01AC01205030404040504806C0E8
:1000C000C801B7010E944D049B01AC01B901CA01EE
:1000D0001F910F91FF90EF900895A0E0B0E0E3E74B
:1000E000F0E00C94B218DC012B01FA019C919230E3
:1000F00008F439C1EB018881823008F433C19430AF
:1001000069F4843009F02FC111969C91119789816F
:10011000981709F428C1ABEAB0E025C1843009F48E
:1001200021C18230A9F4923009F01DC19A01AD01BC
:1001300088E0EA010990AE01E90109929E0181502F
:10014000C1F7E201898111969C918923818308C1BD
:10015000923009F407C112962D903C901397EB0151
:100160008A819B811496AD90BD90CD90DC901797BD
:10017000EC80FD800E811F819101281B390BB90194
:1001800037FF04C066277727621B730B6032710547
:100190000CF061C0121613066CF537014801062EEB
:1001A00004C096948794779467940A94D2F721E0D8
:1001B00030E040E050E004C0220F331F441F551FC1
:1001C0006A95D2F721503040404050402E213F21C7
:1001D00040235123211531054105510521F021E02E
:1001E00030E040E050E079018A01E628F72808294C
:1001F00019293CC0232BD1F1260E371E35014601AB
:10020000062E04C096948794779467940A94D2F744
:1002100021E030E040E050E004C0220F331F441FD3
:10022000551F6A95D2F721503040404050402A2156
:100230003B214C215D21211531054105510521F05E
:1002400021E030E040E050E059016A01A628B728DB
:10025000C828D9280BC0821593052CF01C01AA24AC
:10026000BB24650103C0EE24FF24870111969C91F5
:10027000D20111968C91981709F445C0992339F051
:10028000A80197012A193B094C095D0906C0A6017E
:1002900095012E193F09400B510B57FD08C01182E3
:1002A0003382228224833583468357831DC081E0B5
:1002B00081833382228288279927DC01821B930B5A
:1002C000A40BB50B84839583A683B7830DC0220F3F
:1002D000331F441F551F24833583468357838281F0
:1002E000938101979383828324813581468157814D
:1002F000DA01C9010197A109B1098F5F9F4FAF4F83
:10030000BF4328F30BC0918333822282EA0CFB1C8B
:100310000C1D1D1DE482F5820683178383E0808314
:10032000248135814681578157FF1AC0C901AA2708
:1003300097FDA095BA2F81709070A070B0705695FF
:10034000479537952795822B932BA42BB52B848328
:100350009583A683B7838281938101969383828359
:10036000DF0101C0D201CD01CDB7DEB7E2E10C94CF
:10037000CE18A0E2B0E0EFEBF1E00C94BE18698378
:100380007A838B839C832D833E834F835887E9E058
:10039000EE2EF12CEC0EFD1ECE010196B7010E944F
:1003A00076058E010F5E1F4FCE010596B8010E94A3
:1003B00076058A8991E089278A8BC701B801AE0149
:1003C000475E5F4F0E946D000E94A104A096E6E088
:1003D0000C94DA18A0E2B0E0E0EFF1E00C94BE1863
:1003E00069837A838B839C832D833E834F835887D5
:1003F000F9E0EF2EF12CEC0EFD1ECE010196B701B7
:100400000E9476058E010F5E1F4FCE010596B80142
:100410000E947605C701B801AE01475E5F4F0E949A
:100420006D000E94A104A096E6E00C94DA18A0E208
:10043000B0E0EDE1F2E00C94B21869837A838B832B
:100440009C832D833E834F835887CE010196BE0146
:10045000675F7F4F0E947605CE010596BE016F5EF5
:100460007F4F0E9476059985923088F08989823085
:10047000C8F0943019F4823051F404C0843029F467
:10048000923081F48BEA90E0C6C0923049F420E0CB
:100490009A858A89981321E02A87CE010996BBC0E4
:1004A000823049F420E09A858A89981321E02A8BCA
:1004B000CE014196B0C02D843E844F8458886D880B
:1004C0007E888F88988CEE24FF248701AA24BB2481
:1004D000650140E050E060E070E0E0E0F0E0C10184
:1004E00081709070892BE9F0E60CF71C081D191D2E
:1004F0009A01AB012A0D3B1D4C1D5D1D80E090E073
:10050000A0E0B0E0E614F7040805190520F481E046
:1005100090E0A0E0B0E0BA01A901480F591F6A1F9E
:100520007B1FAA0CBB1CCC1CDD1C97FE08C081E005
:1005300090E0A0E0B0E0A82AB92ACA2ADB2A3196C6
:10054000E032F10549F0660C771C881C991C569422
:10055000479437942794C3CFFA85EA892B893C893D
:100560008B859C85280F391F2E5F3F4F17C0CA010E
:1005700081709070892B61F016950795F794E79438
:1005800080E090E0A0E0B0E8E82AF92A0A2B1B2BD3
:1005900076956795579547952F5F3F4F77FDE7CF46
:1005A0000CC0440F551F661F771F17FD4160EE0CEE
:1005B000FF1C001F111F21503040403090E05907B0
:1005C00090E0690790E4790760F32B8F3C8FDB01A3
:1005D000CA018F779070A070B07080349105A1052A
:1005E000B10561F447FD0AC0E114F10401051105EC
:1005F00029F0405C5F4F6F4F7F4F40781A8EFE1797
:1006000011F081E08A8F4D8F5E8F6F8F78A383E02A
:10061000898FCE0149960E94A104A096E2E10C9434
:10062000CE18A8E1B0E0E7E1F3E00C94BA186983D2
:100630007A838B839C832D833E834F835887B9E0D5
:10064000EB2EF12CEC0EFD1ECE010196B7010E949F
:1006500076058E010F5E1F4FCE010596B8010E94F0
:1006600076052985223008F47EC03989323010F4AD
:10067000B8017CC08A859A8989278A87243011F03D
:10068000223031F4231709F06EC06BEA70E06EC0BF
:10069000343039F41D861E861F86188A1C861B86F8
:1006A00004C0323021F484E08987B7015FC02B8514
:1006B0003C858B899C89281B390B3C872B87ED84D3
:1006C000FE840F851889AD88BE88CF88D88CEA143F
:1006D000FB040C051D0540F4EE0CFF1C001F111F50
:1006E000215030403C872B8720E030E040E050E054
:1006F00080E090E0A0E0B0E460E070E0EA14FB0489
:100700000C051D0540F0282B392B4A2B5B2BEA18D2
:10071000FB080C091D09B695A79597958795EE0CD2
:10072000FF1C001F111F6F5F7F4F6F31710531F785
:10073000DA01C9018F779070A070B0708034910594
:10074000A105B10561F427FD0AC0E114F10401051A
:10075000110529F0205C3F4F4F4F5F4F20782D87C8
:100760003E874F87588BBE01675F7F4FCB010E944A
:10077000A1046896EAE00C94D618A8E1B0E0E3EC96
:10078000F3E00C94BE1869837A838B839C832D835A
:100790003E834F83588789E0E82EF12CEC0EFD1E36
:1007A000CE010196B7010E9476058E010F5E1F4FA4
:1007B000CE010596B8010E9476058985823040F009
:1007C0008989823028F0C701B8010E94EE0501C076
:1007D0008FEF6896E6E00C94DA18A8E1B0E0E3EF5A
:1007E000F3E00C94BE1869837A838B839C832D83FA
:1007F0003E834F83588789E0E82EF12CEC0EFD1ED6
:10080000CE010196B7010E9476058E010F5E1F4F43
:10081000CE010596B8010E9476058985823040F0A8
:100820008989823028F0C701B8010E94EE0501C015
:100830008FEF6896E6E00C94DA18A8E1B0E0E3E206
:10084000F4E00C94BE1869837A838B839C832D8398
:100850003E834F83588789E0E82EF12CEC0EFD1E75
:10086000CE010196B7010E9476058E010F5E1F4FE3
:10087000CE010596B8010E9476058985823040F048
:100880008989823028F0C701B8010E94EE0501C0B5
:1008900081E06896E6E00C94DA18ACE0B0E0E3E5BD
:1008A000F4E00C94C21869837A838B839C83CE0115
:1008B0000196BE016B5F7F4F0E9476058D8182306D
:1008C00061F1823050F1843021F48E81882351F11E
:1008D0002EC02F81388537FD20C06E812F31310524
:1008E0001CF06623F9F023C08EE190E0821B930B8D
:1008F00029853A854B855C8504C056954795379583
:1009000027958A95D2F76623B1F05095409530959A
:1009100021953F4F4F4F5F4F0EC020E030E040E049
:1009200050E009C02FEF3FEF4FEF5FE704C020E03A
:1009300030E040E050E8B901CA012C96E2E00C94A6
:10094000DE18DF92EF92FF920F931F93FC01E48079
:10095000F58006811781D1808081823048F480E063
:1009600090E0A0E1B0E0E82AF92A0A2B1B2BA5C0F1
:10097000843009F49FC0823021F4EE24FF248701E3
:1009800005C0E114F1040105110519F4E0E0F0E0FF
:1009900096C0628173819FEF623879070CF05BC06B
:1009A00022E83FEF261B370B2A3131052CF020E0DF
:1009B00030E040E050E02AC0B801A701022E04C098
:1009C00076956795579547950A94D2F781E090E020
:1009D000A0E0B0E004C0880F991FAA1FBB1F2A9592
:1009E000D2F70197A109B1098E219F21A023B1233C
:1009F0000097A105B10521F081E090E0A0E0B0E012
:100A00009A01AB01282B392B4A2B5B2BDA01C90148
:100A10008F779070A070B07080349105A105B105FA
:100A200039F427FF09C0205C3F4F4F4F5F4F04C090
:100A3000215C3F4F4F4F5F4FE0E0F0E02030A0E0FF
:100A40003A07A0E04A07A0E45A0710F0E1E0F0E01E
:100A500079018A0127C06038710564F5FB01E1580E
:100A6000FF4FD801C7018F779070A070B0708034AD
:100A70009105A105B10539F4E7FE0DC080E490E0D1
:100A8000A0E0B0E004C08FE390E0A0E0B0E0E80EAA
:100A9000F91E0A1F1B1F17FF05C016950795F7942F
:100AA000E794319687E016950795F794E7948A9531
:100AB000D1F705C0EE24FF248701EFEFF0E06E2FA1
:100AC000679566276795902F9F77D794DD24D794F5
:100AD0008E2F8695492F462B582F5D29B701CA01C5
:100AE0001F910F91FF90EF90DF900895FC01DB01C3
:100AF000408151812281622F6F7770E0221F22276F
:100B0000221F9381892F880F822B282F30E0991F75
:100B10009927991F11969C93119721153105A9F5D5
:100B2000411551056105710511F482E037C082E875
:100B30009FEF13969C938E9312979A01AB0167E0F7
:100B4000220F331F441F551F6A95D1F783E08C9302
:100B50000DC0220F331F441F551F12968D919C917B
:100B60001397019713969C938E931297203080E0F1
:100B7000380780E0480780E4580758F314962D930F
:100B80003D934D935C93179708952F3F310579F46A
:100B9000411551056105710519F484E08C930895A0
:100BA00064FF03C081E08C9312C01C9210C02F57C9
:100BB000304013963C932E93129783E08C9387E0FA
:100BC000440F551F661F771F8A95D1F770641496DE
:100BD0004D935D936D937C93179708951F93DC015C
:100BE000FB019C91923008F447C08081823008F468
:100BF00043C0943051F411961C91843099F5818151
:100C0000682F70E0611B71093FC0843021F0923081
:100C100031F48230B9F18181882389F12DC0119698
:100C20001C9111978230F1F081811817D9F4129636
:100C30002D913C911397828193818217930794F0B1
:100C400028173907BCF014968D919D910D90BC9199
:100C5000A02D2481358146815781281739074A07FD
:100C60005B0718F4112341F00AC082179307A40709
:100C7000B50740F4112319F061E070E005C06FEF93
:100C80007FEF02C060E070E0CB011F910895DF9319
:100C9000CF9300D000D0CDB7DEB79C838B838B8100
:100CA0009C81CC01A0E0B0E0880F991FAA1FBB1F58
:100CB000880F991FAA1FBB1F880F991FAA1FBB1F50
:100CC000880F991FAA1FBB1F9C01AD0180E492E40D
:100CD000AFE0B0E0BC01CD010E947518DA01C90196
:100CE00001979A838983E0E4F0E089819A81892FD2
:100CF00099278083E9E2F0E089818083AAE2B0E06D
:100D0000EAE2F0E0808180618C93AAE2B0E0EAE25E
:100D1000F0E0808188608C93E0E4F0E086E88083F6
:100D20000F900F900F900F90CF91DF910895DF9368
:100D3000CF93CDB7DEB7EBE2F0E080818823DCF71C
:100D4000ECE2F0E08081CF91DF910895DF93CF93C3
:100D50000F92CDB7DEB78983EBE2F0E08081882F78
:100D600090E0807290700097B9F3ECE2F0E0898136
:100D700080830F90CF91DF910895DF93CF93CDB70C
:100D8000DEB7E1E2F0E01082E0E2F0E08DEF808398
:100D9000CF91DF910895DF93CF93CDB7DEB7E6E52E
:100DA000F0E084EA8083E6E5F0E080818823DCF7E8
:100DB000CF91DF910895DF93CF93CDB7DEB7E6E50E
:100DC000F0E084E98083CF91DF910895DF93CF93A2
:100DD0000F92CDB7DEB78983E3E2F0E089818083AB
:100DE000E6E5F0E084E88083E6E5F0E080818823B2
:100DF000DCF70F90CF91DF910895DF93CF9300D070
:100E000000D000D0CDB7DEB789836A834B838A8157
:100E1000883018F021E02E83D6C08981282F30E059
:100E20003D832C838C819D818130910509F443C0E1
:100E30002C813D81223031052CF48C819D810097DD
:100E400071F0BDC02C813D812230310509F45FC0B5
:100E50008C819D818330910509F485C0B0C08B8160
:100E60008130A1F4AAE3B0E0EAE3F0E08081482F0A
:100E70008A81282F30E081E090E0022E02C0880FA6
:100E8000991F0A94E2F7842B8C939CC0AAE3B0E0EC
:100E9000EAE3F0E08081482F8A81282F30E081E06A
:100EA00090E0022E02C0880F991F0A94E2F7809505
:100EB00084238C9387C08B818130A1F4A7E3B0E0B9
:100EC000E7E3F0E08081482F8A81282F30E081E03D
:100ED00090E0022E02C0880F991F0A94E2F7842B3B
:100EE0008C9370C0A7E3B0E0E7E3F0E08081482F87
:100EF0008A81282F30E081E090E0022E02C0880F26
:100F0000991F0A94E2F7809584238C935BC08B81B0
:100F10008130A1F4A4E3B0E0E4E3F0E08081482F65
:100F20008A81282F30E081E090E0022E02C0880FF5
:100F3000991F0A94E2F7842B8C9344C0A4E3B0E099
:100F4000E4E3F0E08081482F8A81282F30E081E0BF
:100F500090E0022E02C0880F991F0A94E2F7809554
:100F600084238C932FC08B818130A1F4A1E3B0E066
:100F7000E1E3F0E08081482F8A81282F30E081E092
:100F800090E0022E02C0880F991F0A94E2F7842B8A
:100F90008C9318C0A1E3B0E0E1E3F0E08081482F3A
:100FA0008A81282F30E081E090E0022E02C0880F75
:100FB000991F0A94E2F7809584238C9303C091E0F3
:100FC0009E8301C01E828E8126960FB6F894DEBFE6
:100FD0000FBECDBFCF91DF910895DF93CF9300D0A7
:100FE00000D000D0CDB7DEB789836A834B838A8176
:100FF000883018F021E02E83D6C08981282F30E078
:101000003D832C838C819D818130910509F443C0FF
:101010002C813D81223031052CF48C819D810097FB
:1010200071F0BDC02C813D812230310509F45FC0D3
:101030008C819D818330910509F485C0B0C08B817E
:101040008130A1F4ABE3B0E0EBE3F0E08081482F26
:101050008A81282F30E081E090E0022E02C0880FC4
:10106000991F0A94E2F7842B8C939CC0ABE3B0E009
:10107000EBE3F0E08081482F8A81282F30E081E087
:1010800090E0022E02C0880F991F0A94E2F7809523
:1010900084238C9387C08B818130A1F4A8E3B0E0D6
:1010A000E8E3F0E08081482F8A81282F30E081E05A
:1010B00090E0022E02C0880F991F0A94E2F7842B59
:1010C0008C9370C0A8E3B0E0E8E3F0E08081482FA3
:1010D0008A81282F30E081E090E0022E02C0880F44
:1010E000991F0A94E2F7809584238C935BC08B81CF
:1010F0008130A1F4A5E3B0E0E5E3F0E08081482F82
:101100008A81282F30E081E090E0022E02C0880F13
:10111000991F0A94E2F7842B8C9344C0A5E3B0E0B6
:10112000E5E3F0E08081482F8A81282F30E081E0DC
:1011300090E0022E02C0880F991F0A94E2F7809572
:1011400084238C932FC08B818130A1F4A2E3B0E083
:10115000E2E3F0E08081482F8A81282F30E081E0AF
:1011600090E0022E02C0880F991F0A94E2F7842BA8
:101170008C9318C0A2E3B0E0E2E3F0E08081482F56
:101180008A81282F30E081E090E0022E02C0880F93
:10119000991F0A94E2F7809584238C9303C091E011
:1011A0009E8301C01E828E8126960FB6F894DEBF04
:1011B0000FBECDBFCF91DF910895DF93CF93CDB711
:1011C000DEB727970FB6F894DEBF0FBECDBF898379
:1011D0006A835C834B838B819C81009719F421E0A7
:1011E0002F837BC08A81883018F031E03F8375C03F
:1011F0008981482F50E05E834D838D819E818130AF
:10120000910559F12D813E812230310534F44D8113
:101210005E814115510569F05CC08D819E818230EF
:10122000910579F12D813E812330310509F43DC0CE
:1012300050C0E9E3F0E08081282F30E08A81882FD8
:1012400090E0A90102C0559547958A95E2F7CA0139
:101250008170EB81FC8180833FC0E6E3F0E0808118
:10126000282F30E08A81882F90E0A90102C055958F
:1012700047958A95E2F7CA018170EB81FC818083F2
:101280002BC0E3E3F0E08081282F30E08A81882FB3
:1012900090E0A90102C0559547958A95E2F7CA01E9
:1012A0008170EB81FC81808317C0E0E3F0E08081F6
:1012B000282F30E08A81882F90E0A90102C055953F
:1012C00047958A95E2F7CA018170EB81FC818083A2
:1012D00003C051E05F8301C01F828F8127960FB644
:1012E000F894DEBF0FBECDBFCF91DF910895DF939D
:1012F000CF9300D000D00F92CDB7DEB789836A8339
:101300008A81883018F021E02D8373C08981282FCD
:1013100030E03C832B838B819C818130910549F1A6
:101320002B813C81223031052CF48B819C810097EC
:1013300061F05BC02B813C812230310571F18B81E2
:101340009C8183309105E9F150C0ABE3B0E0EBE361
:10135000F0E08081482F8A81282F30E081E090E002
:10136000022E02C0880F991F0A94E2F784278C93FB
:101370003FC0A8E3B0E0E8E3F0E08081482F8A8135
:10138000282F30E081E090E0022E02C0880F991FE4
:101390000A94E2F784278C932BC0A5E3B0E0E5E341
:1013A000F0E08081482F8A81282F30E081E090E0B2
:1013B000022E02C0880F991F0A94E2F784278C93AB
:1013C00017C0A2E3B0E0E2E3F0E08081482F8A8119
:1013D000282F30E081E090E0022E02C0880F991F94
:1013E0000A94E2F784278C9303C091E09D8301C0A7
:1013F0001D828D810F900F900F900F900F90CF91C5
:10140000DF910895DF93CF9300D000D00F92CDB736
:10141000DEB789836A838981282F30E03D832C835E
:101420008C819D8181309105D1F02C813D812230CC
:1014300031052CF48C819D81009761F01FC02C81B7
:101440003D812230310581F08C819D818330910571
:1014500081F014C0EAE3F0E08A81808312C0E7E300
:10146000F0E08A8180830DC0E4E3F0E08A8180832C
:1014700008C0E1E3F0E08A81808303C091E09B83B0
:1014800001C01B828B810F900F900F900F900F90D7
:10149000CF91DF910895DF93CF9300D000D00F92CA
:1014A000CDB7DEB789836A838981282F30E03D83F9
:1014B0002C838C819D8181309105D1F02C813D81DF
:1014C000223031052CF48C819D81009761F01FC082
:1014D0002C813D812230310581F08C819D818330CA
:1014E000910581F014C0EBE3F0E08A81808312C0A3
:1014F000E8E3F0E08A8180830DC0E5E3F0E08A81D3
:10150000808308C0E2E3F0E08A81808303C091E039
:101510009B8301C01B828B810F900F900F900F90C7
:101520000F90CF91DF910895DF93CF9300D000D03B
:1015300000D0CDB7DEB789837B836A838A819B81A4
:10154000009719F421E02E833FC08981282F30E0D5
:101550003D832C838C819D8181309105E1F02C812C
:101560003D81223031052CF48C819D81009761F002
:1015700027C02C813D8122303105A1F08C819D81D5
:1015800083309105B1F01CC0E9E3F0E08081EA818D
:10159000FB81808318C0E6E3F0E08081EA81FB8173
:1015A000808311C0E3E3F0E08081EA81FB818083E6
:1015B0000AC0E0E3F0E08081EA81FB81808303C020
:1015C00091E09E8301C01E828E8126960FB6F8940C
:1015D000DEBF0FBECDBFCF91DF910895DF93CF93D4
:1015E000CDB7DEB781E065E041E00E94FD0683E013
:1015F00066E040E00E94FD06CF91DF910895DF9301
:10160000CF93CDB7DEB76D970FB6F894DEBF0FBEA0
:10161000CDBF1C8E1B8E1D8E81E065E041E00E94D7
:10162000ED0780E090E0A0E2B1E48D8B9E8BAF8B64
:10163000B88F6D897E898F89988D2BEA3AEA4AEABC
:101640005EE30E941702DC01CB01898B9A8BAB8B86
:10165000BC8B69897A898B899C8920E030E040E8DD
:101660005FE30E941D0488231CF481E0888B91C0F5
:1016700069897A898B899C8920E030E04FE753E4BF
:101680000E94BD0318160CF07BC06D897E898F897E
:10169000988D20E030E04AE754E40E941103DC0119
:1016A000CB018C879D87AE87BF876C857D858E85B6
:1016B0009F8520E030E04AE753E40E941702DC01F6
:1016C000CB0188879987AA87BB87688579858A85B2
:1016D0009B8520E030E040E85FE30E941D04882302
:1016E0002CF481E090E09F838E833FC068857985EC
:1016F0008A859B8520E03FEF4FE757E40E94BD03BA
:1017000018164CF56C857D858E859F8520E030E030
:1017100040E251E40E941702DC01CB01BC01CD0183
:101720000E944100DC01CB019F838E830FC089E1C1
:1017300090E09D838C838C819D810197F1F79D833F
:101740008C838E819F8101979F838E838E819F8161
:10175000009769F724C0688579858A859B850E94F2
:101760004100DC01CB019F838E838E819F819B830F
:101770008A838A819B810197F1F79B838A830FC0BB
:1017800069897A898B899C890E944100DC01CB019F
:10179000888B8889898389818A95F1F7898381E09B
:1017A00065E040E00E94ED079E01235E3F4F83E02D
:1017B00066E0A9010E94DD088D8D8823A9F3E4E489
:1017C000F0E01082E5E4F0E082E080839E01235E99
:1017D0003F4F83E066E0A9010E94DD08E4E4F0E009
:1017E00080818F3F49F48B8D9C8D81509F4F9C8FC2
:1017F0008B8FE4E4F0E010828D8D813039F3E4E4E6
:10180000F0E08081282F30E08B8D9C8D820F931F1C
:101810009C8F8B8FE5E4F0E010828B8D9C8D2AE30A
:1018200030E0B9010E946118CB019A8F898F898DB0
:101830009A8D6D960FB6F894DEBF0FBECDBFCF91D7
:10184000DF910895DF93CF93CDB7DEB783E065E0F6
:1018500041E00E94FD06ECE4F0E011821082E6E433
:10186000F0E083EC99E091838083EFE4F0E0108274
:10187000AFE4B0E0EFE4F0E0808182608C93AFE40D
:10188000B0E0EFE4F0E0808180688C93EEE4F0E07B
:101890001082AEE4B0E0EEE4F0E0808188608C93EA
:1018A000AEE4B0E0EEE4F0E0808180618C93AEE4E1
:1018B000B0E0EEE4F0E0808181608C93AEE4B0E0D3
:1018C000EEE4F0E0808182608C93CF91DF91089507
:1018D0000F931F93DF93CF93CDB7DEB72F970FB63C
:1018E000F894DEBF0FBECDBF8F878F85863A14F484
:1018F00086EA8F878F858B3514F08AE58F870AE417
:1019000010E08F85992787FD9095A92FB92F2BEE91
:1019100030E040E050E0BC01CD010E944218DC0103
:10192000CB0124EB30E040E050E0BC01CD010E944F
:101930009718DA01C90181559F4FF801918380837F
:1019400080E090E0AAEFB3E48B879C87AD87BE87E9
:101950006B857C858D859E8520E030E04AE753E4E9
:101960000E941702DC01CB018F839887A987BA8771
:101970006F81788589859A8520E030E040E85FE3D3
:101980000E941D0488232CF481E090E09E838D83C7
:101990003FC06F81788589859A8520E03FEF4FE7CA
:1019A00057E40E94BD0318164CF56B857C858D8528
:1019B0009E8520E030E040E251E40E941702DC0105
:1019C000CB01BC01CD010E944100DC01CB019E8313
:1019D0008D830FC089E190E09C838B838B819C81F8
:1019E0000197F1F79C838B838D819E8101979E8364
:1019F0008D838D819E81009769F714C06F817885F2
:101A000089859A850E944100DC01CB019E838D83EC
:101A10008D819E819A83898389819A810197F1F7CB
:101A20009A8389832F960FB6F894DEBF0FBECDBF81
:101A3000CF91DF911F910F910895DF93CF93CDB791
:101A4000DEB781E060E041E00E94FD0681E061E0F8
:101A500041E00E94FD0681E062E041E00E94FD0657
:101A600081E064E041E00E94FD06CF91DF9108959E
:101A7000DF93CF93CDB7DEB781E060E040E00E9416
:101A8000ED0781E061E040E00E94ED0781E062E067
:101A900040E00E94ED0781E064E040E00E94ED0735
:101AA000CF91DF910895DF93CF93CDB7DEB781E07B
:101AB00061E041E00E94ED0781E064E041E00E94C6
:101AC000ED0781E060E040E00E94ED0781E062E028
:101AD00040E00E94ED07CF91DF910895DF93CF930F
:101AE000CDB7DEB781E060E041E00E94ED0781E024
:101AF00062E041E00E94ED0781E061E040E00E9489
:101B0000ED0781E064E040E00E94ED07CF91DF91B6
:101B10000895DF93CF93CDB7DEB781E061E041E078
:101B20000E94ED0781E062E041E00E94ED0781E064
:101B300060E040E00E94ED0781E064E040E00E9448
:101B4000ED07CF91DF910895DF93CF93CDB7DEB747
:101B500081E060E041E00E94ED0781E064E041E067
:101B60000E94ED0781E061E040E00E94ED0781E026
:101B700062E040E00E94ED07CF91DF910895DF938E
:101B8000CF930F92CDB7DEB789830E94CB068EE448
:101B90000E94E606898188600E94E6060E94DB06B4
:101BA0000F90CF91DF910895DF93CF93CDB7DEB73C
:101BB000E1970FB6F894DEBF0FBECDBF89AB89A900
:101BC00084600E94BF0D80E090E0A0E8BFE38DA795
:101BD0009EA7AFA7B8AB6DA57EA58FA598A92BEA48
:101BE0003AEA4AEA5EE30E941702DC01CB0189A7C8
:101BF0009AA7ABA7BCA769A57AA58BA59CA520E051
:101C000030E040E85FE30E941D0488231CF481E07B
:101C100088A791C069A57AA58BA59CA520E030E096
:101C20004FE753E40E94BD0318160CF07BC06DA56E
:101C30007EA58FA598A920E030E04AE754E40E94F1
:101C40001103DC01CB018CA39DA3AEA3BFA36CA1A8
:101C50007DA18EA19FA120E030E04AE753E40E94DD
:101C60001702DC01CB0188A399A3AAA3BBA368A197
:101C700079A18AA19BA120E030E040E85FE30E94C7
:101C80001D0488232CF481E090E09F8F8E8F3FC04D
:101C900068A179A18AA19BA120E03FEF4FE757E41B
:101CA0000E94BD0318164CF56CA17DA18EA19FA1C9
:101CB00020E030E040E251E40E941702DC01CB0159
:101CC000BC01CD010E944100DC01CB019F8F8E8FB2
:101CD0000FC089E190E09D8F8C8F8C8D9D8D019739
:101CE000F1F79D8F8C8F8E8D9F8D01979F8F8E8F9B
:101CF0008E8D9F8D009769F724C068A179A18AA174
:101D00009BA10E944100DC01CB019F8F8E8F8E8DA5
:101D10009F8D9B8F8A8F8A8D9B8D0197F1F79B8F6B
:101D20008A8F0FC069A57AA58BA59CA50E9441004A
:101D3000DC01CB0188A788A5898F898D8A95F1F769
:101D4000898F89A98B7F0E94BF0D80E090E0A8E475
:101D5000B2E48D8B9E8BAF8BB88F6D897E898F8916
:101D6000988D2BEA3AEA4AEA5EE30E941702DC0108
:101D7000CB01898B9A8BAB8BBC8B69897A898B89D8
:101D80009C8920E030E040E85FE30E941D04882346
:101D90001CF481E0888B91C069897A898B899C8940
:101DA00020E030E04FE753E40E94BD0318160CF02A
:101DB0007BC06D897E898F89988D20E030E04AE76D
:101DC00054E40E941103DC01CB018C879D87AE8710
:101DD000BF876C857D858E859F8520E030E04AE752
:101DE00053E40E941702DC01CB0188879987AA87F8
:101DF000BB87688579858A859B8520E030E040E84F
:101E00005FE30E941D0488232CF481E090E09F830F
:101E10008E833FC0688579858A859B8520E03FEF6A
:101E20004FE757E40E94BD0318164CF56C857D857D
:101E30008E859F8520E030E040E251E40E94170249
:101E4000DC01CB01BC01CD010E944100DC01CB01D2
:101E50009F838E830FC089E190E09D838C838C816A
:101E60009D810197F1F79D838C838E819F810197DE
:101E70009F838E838E819F81009769F724C0688538
:101E800079858A859B850E944100DC01CB019F8377
:101E90008E838E819F819B838A838A819B81019718
:101EA000F1F79B838A830FC069897A898B899C8922
:101EB0000E944100DC01CB01888B8889898389815C
:101EC0008A95F1F78983E1960FB6F894DEBF0FBECD
:101ED000CDBFCF91DF910895DF93CF9300D00F92C4
:101EE000CDB7DEB78B838B81807F8A838B81882FF0
:101EF00090E082959295907F9827807F982789839C
:101F00008A810E94BF0D8A810E94D40D89810E941E
:101F1000BF0D89810E94D40D0F900F900F90CF912B
:101F2000DF910895DF93CF9300D00F92CDB7DEB746
:101F30008B838B81807F81608A838B81882F90E067
:101F400082959295907F9827807F982781608983DA
:101F50008A810E94BF0D8A810E94D40D89810E94CE
:101F6000BF0D89810E94D40D0F900F900F90CF91DB
:101F7000DF910895DF93CF93CDB7DEB76C970FB69F
:101F8000F894DEBF0FBECDBF80E090E0A8E4B2E4DD
:101F9000898F9A8FAB8FBC8F698D7A8D8B8D9C8D3D
:101FA00020E030E04AE753E40E941702DC01CB0155
:101FB0008D8B9E8BAF8BB88F6D897E898F89988D25
:101FC00020E030E040E85FE30E941D0488232CF409
:101FD00081E090E09C8B8B8B3FC06D897E898F89DF
:101FE000988D20E03FEF4FE757E40E94BD0318169D
:101FF0004CF5698D7A8D8B8D9C8D20E030E040E230
:1020000051E40E941702DC01CB01BC01CD010E940A
:102010004100DC01CB019C8B8B8B0FC089E190E0F0
:102020009A8B898B89899A890197F1F79A8B898B89
:102030008B899C8901979C8B8B8B8B899C890097C2
:1020400069F714C06D897E898F89988D0E9441003F
:10205000DC01CB019C8B8B8B8B899C89988B8F8728
:102060008F8598890197F1F7988B8F8783E30E947A
:102070006C0F82E30E946C0F88E20E946C0F8CE070
:102080000E946C0F86E00E946C0F81E00E946C0F32
:1020900080E090E0A0E0B0E48B879C87AD87BE87AE
:1020A0006B857C858D859E8520E030E04AE753E492
:1020B0000E941702DC01CB018F839887A987BA871A
:1020C0006F81788589859A8520E030E040E85FE37C
:1020D0000E941D0488232CF481E090E09E838D8370
:1020E0003FC06F81788589859A8520E03FEF4FE773
:1020F00057E40E94BD0318164CF56B857C858D85D1
:102100009E8520E030E040E251E40E941702DC01AD
:10211000CB01BC01CD010E944100DC01CB019E83BB
:102120008D830FC089E190E09C838B838B819C81A0
:102130000197F1F79C838B838D819E8101979E830C
:102140008D838D819E81009769F714C06F8178859A
:1021500089859A850E944100DC01CB019E838D8395
:102160008D819E819A83898389819A810197F1F774
:102170009A8389836C960FB6F894DEBF0FBECDBFED
:10218000CF91DF910895DF93CF9300D0CDB7DEB725
:102190009A8389830BC0E981FA81208189819A81A0
:1021A00001969A838983822F0E94920FE981FA8196
:1021B0008081882381F70F900F90CF91DF91089550
:1021C000DF93CF9300D00F92CDB7DEB78A836B83B6
:1021D0008A81882321F48B818058898303C08B8175
:1021E0008054898389810E946C0F0F900F900F900B
:1021F000CF91DF9108950F931F93DF93CF93CDB7C6
:10220000DEB7C65AD0400FB6F894DEBF0FBECDBFC2
:10221000FE01ED56FF4F10820E94EE0A0E94220C32
:102220000E94BD060E94BA0F80E895E20E94470610
:102230000E94380DFE01E757FF4F80E090E0AAEFC3
:10224000B4E480839183A283B3838E010B571F4F25
:10225000FE01E757FF4F608171818281938120E009
:1022600030E04AE753E40E941702DC01CB01F80199
:1022700080839183A283B383FE01EB57FF4F60817C
:1022800071818281938120E030E040E85FE30E9429
:102290001D04882344F4FE01ED57FF4F81E090E0D8
:1022A0009183808364C0FE01EB57FF4F6081718191
:1022B0008281938120E03FEF4FE757E40E94BD0306
:1022C00018160CF043C0FE01E757FF4F6081718183
:1022D0008281938120E030E040E251E40E941702C5
:1022E000DC01CB018E010D571F4FBC01CD010E94B7
:1022F0004100DC01CB01F801918380831FC0FE0106
:10230000EF57FF4F89E190E091838083FE01EF5703
:10231000FF4F808191810197F1F7FE01EF57FF4F49
:1023200091838083DE01AD57BF4FFE01ED57FF4F14
:1023300080819181019711969C938E93FE01ED57B8
:10234000FF4F808191810097D1F627C08E010D57F4
:102350001F4FFE01EB57FF4F608171818281938196
:102360000E944100DC01CB01F80191838083DE01F2
:10237000A158BF4FFE01ED57FF4F808191818D9392
:102380009C93FE01E158FF4F808191810197F1F705
:10239000FE01E158FF4F9183808380E060E00E945E
:1023A000E01080E690E00E94C310EBE2F0E0808154
:1023B00088230CF065C1ECE2F0E0DE01AC56BF4FC3
:1023C00080818C93FE01EC56FF4F8081813481F433
:1023D000FE01ED56FF4F108281E00E946C0F80E0FD
:1023E00060E00E94E0108DE690E00E94C31048C1BA
:1023F000FE01EC56FF4F80818D3489F4FE01ED56CD
:10240000FF4F81E0808381E00E946C0F80E060E0FC
:102410000E94E01087E790E00E94C31031C1FE01E6
:10242000ED56FF4F8081813009F02AC1FE01EC5644
:10243000FF4F8081282F30E0CB55DF4F3983288331
:10244000C55AD040CB55DF4F88819981C55AD040BD
:102450008634910531F1CB55DF4FE881F981C55ABA
:10246000D040E734F10554F4CB55DF4F2881398152
:10247000C55AD0402234310511F14BC0CB55DF4F46
:1024800088819981C55AD0408C34910531F1CB5562
:10249000DF4FE881F981C55AD040E235F10559F1A5
:1024A00038C00E94530D81E00E946C0F80E060E014
:1024B0000E94E01083E890E00E94C3102CC00E94AC
:1024C0006E0D81E00E946C0F80E060E00E94E010E1
:1024D0008BE890E00E94C3101EC00E94890D81E02D
:1024E0000E946C0F80E060E00E94E01084E990E0C0
:1024F0000E94C31010C00E94A40D81E00E946C0FC6
:1025000080E060E00E94E01089E990E00E94C31042
:1025100002C00E94380DFE01E558FF4F80E090E0B8
:10252000A8E4B3E480839183A283B3838E01095826
:102530001F4FFE01E558FF4F6081718182819381B9
:1025400020E030E04AE753E40E941702DC01CB01AF
:10255000F80180839183A283B383FE01E958FF4F82
:10256000608171818281938120E030E040E85FE307
:102570000E941D04882344F4FE01EB58FF4F81E0C4
:1025800090E09183808364C0FE01E958FF4F608131
:1025900071818281938120E03FEF4FE757E40E94F1
:1025A000BD0318160CF043C0FE01E558FF4F6081D3
:1025B00071818281938120E030E040E251E40E9409
:1025C0001702DC01CB018E010B581F4FBC01CD015E
:1025D0000E944100DC01CB01F801918380831FC080
:1025E000FE01ED58FF4F89E190E091838083FE0169
:1025F000ED58FF4F808191810197F1F7FE01ED5871
:10260000FF4F91838083DE01AB58BF4FFE01EB5833
:10261000FF4F80819181019711969C938E93FE01CB
:10262000EB58FF4F808191810097D1F627C08E0132
:102630000B581F4FFE01E958FF4F60817181828165
:1026400093810E944100DC01CB01F80191838083DA
:10265000DE01AF58BF4FFE01EB58FF4F80819181E3
:102660008D939C93FE01EF58FF4F808191810197DC
:10267000F1F7FE01EF58FF4F918380830E94380DE0
:10268000FE01ED56FF4F8081882309F08ECE0E9417
:10269000FF0AFE01EF56FF4F9183808381E060E0E7
:1026A0000E94E01000D000D000D0ADB7BEB71196A8
:1026B000CE018B569F4F11969C938E938FE990E09D
:1026C00013969C938E931297FE01EF56FF4F8081D5
:1026D000918115969C938E9314970E94E9182DB7BB
:1026E0003EB72A5F3F4F0FB6F8943EBF0FBE2DBFD7
:1026F000CE018B569F4F0E94C310FE01EF56FF4F35
:10270000808191818031910518F00E94530D47C45A
:102710000E94380DFE01E359FF4F80E090E0A6E9EA
:10272000B3E480839183A283B3838E0107591F4F43
:10273000FE01E359FF4F608171818281938120E026
:1027400030E04AE753E40E941702DC01CB01F801B4
:1027500080839183A283B383FE01E759FF4F608199
:1027600071818281938120E030E040E85FE30E9444
:102770001D04882344F4FE01E959FF4F81E090E0F5
:102780009183808364C0FE01E759FF4F60817181AE
:102790008281938120E03FEF4FE757E40E94BD0321
:1027A00018160CF043C0FE01E359FF4F60817181A0
:1027B0008281938120E030E040E251E40E941702E0
:1027C000DC01CB018E0109591F4FBC01CD010E94D4
:1027D0004100DC01CB01F801918380831FC0FE0121
:1027E000EB59FF4F89E190E091838083FE01EB5923
:1027F000FF4F808191810197F1F7FE01EB59FF4F67
:1028000091838083DE01A959BF4FFE01E959FF4F33
:1028100080819181019711969C938E93FE01E959D5
:10282000FF4F808191810097D1F627C08E01095911
:102830001F4FFE01E759FF4F6081718182819381B3
:102840000E944100DC01CB01F80191838083DE010D
:10285000AD59BF4FFE01E959FF4F808191818D93A2
:102860009C93FE01ED59FF4F808191810197F1F713
:10287000FE01ED59FF4F918380838AE50E94680C29
:10288000FE01E15AFF4F80E090E0AAEFB3E48083BD
:102890009183A283B3838E01055A1F4FFE01E15A33
:1028A000FF4F608171818281938120E030E04AE7AF
:1028B00053E40E941702DC01CB01F801808391836D
:1028C000A283B383FE01E55AFF4F6081718182814B
:1028D000938120E030E040E85FE30E941D048823FC
:1028E00044F4FE01E75AFF4F81E090E0918380833A
:1028F00064C0FE01E55AFF4F60817181828193813E
:1029000020E03FEF4FE757E40E94BD0318160CF09C
:1029100043C0FE01E15AFF4F608171818281938142
:1029200020E030E040E251E40E941702DC01CB01DC
:102930008E01075A1F4FBC01CD010E944100DC01EE
:10294000CB01F801918380831FC0FE01E95AFF4F3C
:1029500089E190E091838083FE01E95AFF4F8081F5
:1029600091810197F1F7FE01E95AFF4F918380832E
:10297000DE01A75ABF4FFE01E75AFF4F80819181C8
:10298000019711969C938E93FE01E75AFF4F808129
:1029900091810097D1F627C08E01075A1F4FFE0183
:1029A000E55AFF4F60817181828193810E944100CD
:1029B000DC01CB01F80191838083DE01AB5ABF4F6C
:1029C000FE01E75AFF4F808191818D939C93FE0118
:1029D000EB5AFF4F808191810197F1F7FE01EB5A8D
:1029E000FF4F918380830E94FF0AFE01E157FF4F52
:1029F0009183808386EA0E94680CFE01EF5AFF4FA4
:102A000080E090E0AAEFB3E480839183A283B38354
:102A10008E01035B1F4FFE01EF5AFF4F60817181F2
:102A20008281938120E030E04AE753E40E9417025C
:102A3000DC01CB01F80180839183A283B383FE0183
:102A4000E35BFF4F608171818281938120E030E000
:102A500040E85FE30E941D04882344F4FE01E55B27
:102A6000FF4F81E090E09183808364C0FE01E35BCF
:102A7000FF4F608171818281938120E03FEF4FE7BA
:102A800057E40E94BD0318160CF043C0FE01EF5A34
:102A9000FF4F608171818281938120E030E040E2CC
:102AA00051E40E941702DC01CB018E01055B1F4F30
:102AB000BC01CD010E944100DC01CB01F8019183F2
:102AC00080831FC0FE01E75BFF4F89E190E09183A7
:102AD0008083FE01E75BFF4F808191810197F1F7D1
:102AE000FE01E75BFF4F91838083DE01A55BBF4F53
:102AF000FE01E55BFF4F80819181019711969C93C8
:102B00008E93FE01E55BFF4F808191810097D1F6A6
:102B100027C08E01055B1F4FFE01E35BFF4F608105
:102B20007181828193810E944100DC01CB01F80117
:102B300091838083DE01A95BBF4FFE01E55BFF4F00
:102B4000808191818D939C93FE01E95BFF4F808191
:102B500091810197F1F7FE01E95BFF4F918380833B
:102B60000E94FF0AFE01E357FF4F9183808380E0BC
:102B70000E94680CFE01ED5BFF4F80E090E0A6E94B
:102B8000B3E480839183A283B3838E01015C1F4FE2
:102B9000FE01ED5BFF4F608171818281938120E0B6
:102BA00030E04AE753E40E941702DC01CB01F80150
:102BB00080839183A283B383FE01FF96608171813C
:102BC0008281938120E030E040E85FE30E941D04B1
:102BD00088232CF481E090E09EAF8DAF46C0FE01CB
:102BE000FF96608171818281938120E03FEF4FE702
:102BF00057E40E94BD03181664F5FE01ED5BFF4F1C
:102C0000608171818281938120E030E040E251E473
:102C10000E941702DC01CB01BC01CD010E944100E2
:102C2000DC01CB019EAF8DAF0FC089E190E09CAF7E
:102C30008BAF8BAD9CAD0197F1F79CAF8BAF8DAD9A
:102C40009EAD01979EAF8DAF8DAD9EAD009769F79C
:102C500016C0FE01FF9660817181828193810E947E
:102C60004100DC01CB019EAF8DAF8DAD9EAD9AAF23
:102C700089AF89AD9AAD0197F1F79AAF89AFFE019F
:102C8000E157FF4FDE01A357BF4F208131818D9166
:102C90009C9111978217930708F07EC0FE01E157BF
:102CA000FF4F808191818031910508F475C00E94A9
:102CB000A40D80E090E0A6E1B4E48DAB9EABAFAB99
:102CC000B8AF6DA97EA98FA998AD20E030E04AE7A2
:102CD00053E40E941702DC01CB0189AB9AABABAB8A
:102CE000BCAB69A97AA98BA99CA920E030E040E897
:102CF0005FE30E941D0488232CF481E090E098ABF0
:102D00008FA73FC069A97AA98BA99CA920E03FEFB2
:102D10004FE757E40E94BD0318164CF56DA97EA934
:102D20008FA998AD20E030E040E251E40E94170204
:102D3000DC01CB01BC01CD010E944100DC01CB01D3
:102D400098AB8FA70FC089E190E09EA78DA78DA5B6
:102D50009EA50197F1F79EA78DA78FA598A901972A
:102D600098AB8FA78FA598A9009769F716C169A995
:102D70007AA98BA99CA90E944100DC01CB0198ABE8
:102D80008FA78FA598A99CA78BA78BA59CA501971A
:102D9000F1F79CA78BA701C1FE01E357FF4FDE01AE
:102DA000A157BF4F208131818D919C91119782173E
:102DB000930708F07EC0FE01E357FF4F80819181A9
:102DC0008031910508F475C00E94890D80E090E083
:102DD000A6E1B4E48FA398A7A9A7BAA76FA178A585
:102DE00089A59AA520E030E04AE753E40E94170243
:102DF000DC01CB018BA39CA3ADA3BEA36BA17CA1E3
:102E00008DA19EA120E030E040E85FE30E941D0418
:102E100088232CF481E090E09AA389A33FC06BA1A2
:102E20007CA18DA19EA120E03FEF4FE757E40E94D7
:102E3000BD0318164CF56FA178A589A59AA520E0C9
:102E400030E040E251E40E941702DC01CB01BC01FA
:102E5000CD010E944100DC01CB019AA389A30FC0E0
:102E600089E190E098A38F8F8F8D98A10197F1F75A
:102E700098A38F8F89A19AA101979AA389A389A169
:102E80009AA1009769F789C06BA17CA18DA19EA131
:102E90000E944100DC01CB019AA389A389A19AA1D8
:102EA0009E8F8D8F8D8D9E8D0197F1F79E8F8D8FCB
:102EB00074C00E946E0D80E090E0AAEFB3E4898FA9
:102EC0009A8FAB8FBC8F698D7A8D8B8D9C8D20E016
:102ED00030E04AE753E40E941702DC01CB018D8BFE
:102EE0009E8BAF8BB88F6D897E898F89988D20E0FE
:102EF00030E040E85FE30E941D0488232CF481E069
:102F000090E09C8B8B8B3FC06D897E898F89988DDB
:102F100020E03FEF4FE757E40E94BD0318164CF541
:102F2000698D7A8D8B8D9C8D20E030E040E251E4FC
:102F30000E941702DC01CB01BC01CD010E944100BF
:102F4000DC01CB019C8B8B8B0FC089E190E09A8BCD
:102F5000898B89899A890197F1F79A8B898B8B895B
:102F60009C8901979C8B8B8B8B899C89009769F737
:102F700014C06D897E898F89988D0E944100DC0183
:102F8000CB019C8B8B8B8B899C89988B8F878F85B2
:102F900098890197F1F7988B8F870E94380D80E010
:102FA00090E0A8ECB2E48B879C87AD87BE876B85E9
:102FB0007C858D859E8520E030E04AE753E40E94C1
:102FC0001702DC01CB018F839887A987BA876F81AD
:102FD000788589859A8520E030E040E85FE30E94AB
:102FE0001D0488232CF481E090E09E838D833FC0F4
:102FF0006F81788589859A8520E03FEF4FE757E418
:103000000E94BD0318164CF56B857C858D859E85C9
:1030100020E030E040E251E40E941702DC01CB01E5
:10302000BC01CD010E944100DC01CB019E838D8358
:103030000FC089E190E09C838B838B819C810197F9
:10304000F1F79C838B838D819E8101979E838D8375
:103050008D819E81009769F7A8C96F8178858985E0
:103060009A850E944100DC01CB019E838D838D8176
:103070009E819A83898389819A810197F1F79A8346
:10308000898393C9629FD001739FF001829FE00DF5
:10309000F11D649FE00DF11D929FF00D839FF00DD7
:1030A000749FF00D659FF00D9927729FB00DE11D83
:1030B000F91F639FB00DE11DF91FBD01CF01112460
:1030C0000895AA1BBB1B51E107C0AA1FBB1FA6176F
:1030D000B70710F0A61BB70B881F991F5A95A9F7C1
:1030E00080959095BC01CD010895A1E21A2EAA1BEE
:1030F000BB1BFD010DC0AA1FBB1FEE1FFF1FA217A8
:10310000B307E407F50720F0A21BB30BE40BF50BA4
:10311000661F771F881F991F1A9469F7609570952D
:10312000809590959B01AC01BD01CF01089597FB5F
:10313000092E05260ED057FD04D0D7DF0AD0001C7B
:1031400038F450954095309521953F4F4F4F5F4F44
:103150000895F6F790958095709561957F4F8F4F04
:103160009F4F08952F923F924F925F926F927F925E
:103170008F929F92AF92BF92CF92DF92EF92FF9287
:103180000F931F93CF93DF93CDB7DEB7CA1BDB0B33
:103190000FB6F894DEBF0FBECDBF09942A883988D8
:1031A00048885F846E847D848C849B84AA84B984DF
:1031B000C884DF80EE80FD800C811B81AA81B981EB
:1031C000CE0FD11D0FB6F894DEBF0FBECDBFED01FF
:1031D0000895AEE0B0E0EFEEF8E10C94C0180D8970
:1031E0001E8986E08C831A8309838FEF9FE79E8375
:1031F0008D839E01275E3F4FCE0101966F89788DAA
:10320000A9010E940D192F813885020F131FF801A3
:1032100010822E96E4E00C94DC18ABE0B0E0E3E121
:10322000F9E10C94B2183C012B015A01FC01178200
:103230001682838181FD03C06FEF7FEFC6C19AE0E4
:10324000892E1E010894211C311CF3012381F201F7
:1032500023FD859123FF81912F01882309F4B2C1B9
:10326000853239F423FD859123FF81912F01853229
:1032700029F490E0B3010E94001BE7CF982FFF24B0
:10328000EE249924FFE1FF15D0F09B3269F09C32C7
:1032900028F4903259F0933291F40EC09D3249F0E7
:1032A000903369F441E024C052E0F52A84E0F82A22
:1032B00028C098E0F92A25C0E0E1FE2A22C0F7FCE8
:1032C00029C0892F80538A3070F4F6FE05C0989C7F
:1032D000902C1124980E15C0E89CE02C1124E80EC7
:1032E000F0E2FF2A0EC09E3229F4F6FC6BC140E4E6
:1032F000F42A07C09C3619F450E8F52A02C0983623
:1033000049F4F20123FD959123FF91912F01992317
:1033100009F0B8CF892F8554833018F0805283305C
:1033200038F444E050E0A40EB51E5FE359830FC0AB
:10333000933631F0933779F0933509F056C020C0B9
:10334000F5018081898342E050E0A40EB51E610141
:1033500001E010E012C0F501C080D180F6FC03C08E
:103360006FEF7FEF02C0692D70E042E050E0A40EE5
:10337000B51EC6010E94F51A8C015FE7F52214C044
:10338000F501C080D180F6FC03C06FEF7FEF02C073
:10339000692D70E042E050E0A40EB51EC6010E9407
:1033A000EA1A8C0150E8F52AF3FE07C01AC080E241
:1033B00090E0B3010E94001BEA948E2D90E0081764
:1033C0001907A8F30EC0F601F7FC8591F7FE81916D
:1033D0006F0190E0B3010E94001BE110EA940150DC
:1033E00010400115110579F7EAC0943611F09936AD
:1033F00069F5F7FE08C0F5012081318142815381D2
:1034000084E090E00AC0F501808191819C0144270D
:1034100037FD4095542F82E090E0A80EB91E9FE63C
:10342000F92257FF09C050954095309521953F4F9F
:103430004F4F5F4FE0E8FE2ACA01B901A1012AE01F
:1034400030E00E942C1BD82ED21840C0953729F4AA
:103450001F2D1F7E2AE030E01DC01F2D197F9F36D3
:1034600061F0903720F4983509F0ACC00FC0903768
:1034700039F0983709F0A6C004C028E030E00AC04F
:10348000106114FD146020E130E004C014FD1660EA
:1034900020E132E017FF08C0F5016081718182816F
:1034A000938144E050E008C0F50180819181BC0126
:1034B00080E090E042E050E0A40EB51EA1010E9421
:1034C0002C1BD82ED2188FE7F82EF122F6FE0BC057
:1034D0005EEFF522D91438F4F4FE07C0F2FC05C003
:1034E0008FEEF82202C01D2D01C0192DF4FE0DC073
:1034F000FE01ED0DF11D8081803319F499EEF92262
:1035000008C01F5FF2FE05C003C08F2D867809F04A
:103510001F5F0F2DF3FC14C0F0FE0FC01E1510F03E
:103520009D2C0BC09D2C9E0C911A1E2D06C080E276
:1035300090E0B3010E94001B1F5F1E15C0F304C082
:103540001E1510F4E11A01C0EE2404FF0FC080E341
:1035500090E0B3010E94001B02FF1DC001FD03C0EB
:1035600088E790E00EC088E590E00BC0802F867859
:1035700091F001FF02C08BE201C080E2F7FC8DE216
:1035800090E0B3010E94001B06C080E390E0B3010D
:103590000E94001B9A94D914C0F3DA94F101ED0D46
:1035A000F11D808190E0B3010E94001BDD20A9F78E
:1035B00006C080E290E0B3010E94001BEA94EE2076
:1035C000C1F743CEF30166817781CB012B96E2E10F
:1035D0000C94CE18FC010590615070400110D8F792
:1035E000809590958E0F9F1F0895FC01615070404B
:1035F00001900110D8F7809590958E0F9F1F089528
:103600000F931F93CF93DF938C01EB018B8181FF8D
:103610001BC082FF0DC02E813F818C819D812817A8
:10362000390764F4E881F9810193F983E88306C0DE
:10363000E885F985802F0995892B31F48E819F814A
:1036400001969F838E8302C00FEF1FEFC801DF91A9
:10365000CF911F910F910895FA01AA27283051F1B7
:10366000203181F1E8946F936E7F6E5F7F4F8F4FB3
:103670009F4FAF4FB1E03ED0B4E03CD0670F781F12
:10368000891F9A1FA11D680F791F8A1F911DA11DF7
:103690006A0F711D811D911DA11D20D009F4689430
:1036A0003F912AE0269F11243019305D3193DEF6D8
:1036B000CF010895462F4770405D4193B3E00FD08E
:1036C000C9F7F6CF462F4F70405D4A3318F0495D79
:1036D00031FD4052419302D0A9F7EACFB4E0A6955C
:1036E0009795879577956795BA95C9F7009761057E
:1036F000710508959B01AC010A2E069457954795D4
:1037000037952795BA95C9F7620F731F841F951FC8
:08371000A01D0895F894FFCFFD
:1037180057616974696E67204D6F6465004155543F
:103728004F204D4F4445004D414E55414C204D4F83
:10373800444500464F5257415244004241434B577B
:10374800415244004C4546540052494748540044AD
:103758006973743A25336420636D0000000000002B
:04376800000000005D
:00000001FF
